{
  "contractName": "Election",
  "abi": [
    {
      "inputs": [],
      "stateMutability": "nonpayable",
      "type": "constructor"
    },
    {
      "inputs": [],
      "name": "admin",
      "outputs": [
        {
          "internalType": "address",
          "name": "",
          "type": "address"
        }
      ],
      "stateMutability": "view",
      "type": "function"
    },
    {
      "inputs": [],
      "name": "appointmentFee",
      "outputs": [
        {
          "internalType": "uint256",
          "name": "",
          "type": "uint256"
        }
      ],
      "stateMutability": "view",
      "type": "function"
    },
    {
      "inputs": [
        {
          "internalType": "uint256",
          "name": "",
          "type": "uint256"
        }
      ],
      "name": "appointments",
      "outputs": [
        {
          "internalType": "address",
          "name": "patient",
          "type": "address"
        },
        {
          "internalType": "string",
          "name": "timeSlot",
          "type": "string"
        },
        {
          "internalType": "address",
          "name": "doctor",
          "type": "address"
        }
      ],
      "stateMutability": "view",
      "type": "function"
    },
    {
      "inputs": [
        {
          "internalType": "uint256",
          "name": "",
          "type": "uint256"
        }
      ],
      "name": "doctorAddresses",
      "outputs": [
        {
          "internalType": "address",
          "name": "",
          "type": "address"
        }
      ],
      "stateMutability": "view",
      "type": "function"
    },
    {
      "inputs": [
        {
          "internalType": "address",
          "name": "",
          "type": "address"
        },
        {
          "internalType": "string",
          "name": "",
          "type": "string"
        }
      ],
      "name": "doctorBookings",
      "outputs": [
        {
          "internalType": "bool",
          "name": "",
          "type": "bool"
        }
      ],
      "stateMutability": "view",
      "type": "function"
    },
    {
      "inputs": [],
      "name": "doctorCounter",
      "outputs": [
        {
          "internalType": "uint256",
          "name": "",
          "type": "uint256"
        }
      ],
      "stateMutability": "view",
      "type": "function"
    },
    {
      "inputs": [
        {
          "internalType": "address",
          "name": "",
          "type": "address"
        }
      ],
      "name": "doctors",
      "outputs": [
        {
          "internalType": "uint256",
          "name": "id",
          "type": "uint256"
        },
        {
          "internalType": "string",
          "name": "name",
          "type": "string"
        },
        {
          "internalType": "string",
          "name": "specialization",
          "type": "string"
        },
        {
          "internalType": "address",
          "name": "doctorAddress",
          "type": "address"
        }
      ],
      "stateMutability": "view",
      "type": "function"
    },
    {
      "inputs": [
        {
          "internalType": "uint256",
          "name": "",
          "type": "uint256"
        }
      ],
      "name": "patientAddresses",
      "outputs": [
        {
          "internalType": "address",
          "name": "",
          "type": "address"
        }
      ],
      "stateMutability": "view",
      "type": "function"
    },
    {
      "inputs": [],
      "name": "patientCounter",
      "outputs": [
        {
          "internalType": "uint256",
          "name": "",
          "type": "uint256"
        }
      ],
      "stateMutability": "view",
      "type": "function"
    },
    {
      "inputs": [
        {
          "internalType": "address",
          "name": "",
          "type": "address"
        }
      ],
      "name": "patients",
      "outputs": [
        {
          "internalType": "uint256",
          "name": "id",
          "type": "uint256"
        },
        {
          "internalType": "uint256",
          "name": "age",
          "type": "uint256"
        },
        {
          "internalType": "string",
          "name": "gender",
          "type": "string"
        },
        {
          "internalType": "enum Election.VaccineStatus",
          "name": "vaccine_status",
          "type": "uint8"
        },
        {
          "internalType": "string",
          "name": "district",
          "type": "string"
        },
        {
          "internalType": "string",
          "name": "symptoms_details",
          "type": "string"
        },
        {
          "internalType": "bool",
          "name": "is_dead",
          "type": "bool"
        },
        {
          "internalType": "address",
          "name": "patientAddress",
          "type": "address"
        }
      ],
      "stateMutability": "view",
      "type": "function"
    },
    {
      "inputs": [
        {
          "internalType": "uint256",
          "name": "",
          "type": "uint256"
        }
      ],
      "name": "timeSlots",
      "outputs": [
        {
          "internalType": "string",
          "name": "",
          "type": "string"
        }
      ],
      "stateMutability": "view",
      "type": "function"
    },
    {
      "inputs": [
        {
          "internalType": "uint256",
          "name": "_age",
          "type": "uint256"
        },
        {
          "internalType": "string",
          "name": "_gender",
          "type": "string"
        },
        {
          "internalType": "string",
          "name": "_district",
          "type": "string"
        },
        {
          "internalType": "string",
          "name": "_symptoms_details",
          "type": "string"
        }
      ],
      "name": "registerPatient",
      "outputs": [],
      "stateMutability": "nonpayable",
      "type": "function"
    },
    {
      "inputs": [
        {
          "internalType": "address",
          "name": "_patientAddress",
          "type": "address"
        },
        {
          "internalType": "enum Election.VaccineStatus",
          "name": "_vaccine_status",
          "type": "uint8"
        },
        {
          "internalType": "bool",
          "name": "_is_dead",
          "type": "bool"
        }
      ],
      "name": "updatePatientData",
      "outputs": [],
      "stateMutability": "nonpayable",
      "type": "function"
    },
    {
      "inputs": [
        {
          "internalType": "string",
          "name": "_name",
          "type": "string"
        },
        {
          "internalType": "string",
          "name": "_specialization",
          "type": "string"
        }
      ],
      "name": "registerDoctor",
      "outputs": [],
      "stateMutability": "nonpayable",
      "type": "function"
    },
    {
      "inputs": [],
      "name": "getAllPatients",
      "outputs": [
        {
          "internalType": "address[]",
          "name": "",
          "type": "address[]"
        }
      ],
      "stateMutability": "view",
      "type": "function"
    },
    {
      "inputs": [],
      "name": "getAllDoctors",
      "outputs": [
        {
          "internalType": "address[]",
          "name": "",
          "type": "address[]"
        }
      ],
      "stateMutability": "view",
      "type": "function"
    },
    {
      "inputs": [
        {
          "internalType": "address",
          "name": "doctor",
          "type": "address"
        },
        {
          "internalType": "string",
          "name": "timeSlot",
          "type": "string"
        }
      ],
      "name": "bookAppointment",
      "outputs": [],
      "stateMutability": "payable",
      "type": "function"
    },
    {
      "inputs": [],
      "name": "getAppointments",
      "outputs": [
        {
          "components": [
            {
              "internalType": "address",
              "name": "patient",
              "type": "address"
            },
            {
              "internalType": "string",
              "name": "timeSlot",
              "type": "string"
            },
            {
              "internalType": "address",
              "name": "doctor",
              "type": "address"
            }
          ],
          "internalType": "struct Election.Appointment[]",
          "name": "",
          "type": "tuple[]"
        }
      ],
      "stateMutability": "view",
      "type": "function"
    },
    {
      "inputs": [],
      "name": "getAllAppointments",
      "outputs": [
        {
          "internalType": "address[]",
          "name": "_patients",
          "type": "address[]"
        },
        {
          "internalType": "string[]",
          "name": "_timeSlots",
          "type": "string[]"
        },
        {
          "internalType": "address[]",
          "name": "_doctors",
          "type": "address[]"
        }
      ],
      "stateMutability": "view",
      "type": "function"
    }
  ],
  "bytecode": "0x60806040526000600155600060025560405180608001604052806040518060400160405280601981526020017f536c6f7420313a20343a303020504d202d20343a313020504d0000000000000081525081526020016040518060400160405280601981526020017f536c6f7420323a20343a313120504d202d20343a323020504d0000000000000081525081526020016040518060400160405280601981526020017f536c6f7420333a20343a323120504d202d20343a333020504d0000000000000081525081526020016040518060400160405280601981526020017f536c6f7420343a20343a333120504d202d20343a343020504d0000000000000081525081525060089060046200011592919062000189565b50662386f26fc10000600a553480156200012e57600080fd5b5073f7cd5e272fc093357c961fe68a922a75d40712e16000806101000a81548173ffffffffffffffffffffffffffffffffffffffff021916908373ffffffffffffffffffffffffffffffffffffffff160217905550620005d7565b828054828255906000526020600020908101928215620001d6579160200282015b82811115620001d5578251829081620001c49190620004f0565b5091602001919060010190620001aa565b5b509050620001e59190620001e9565b5090565b5b808211156200020d576000818162000203919062000211565b50600101620001ea565b5090565b5080546200021f90620002df565b6000825580601f1062000233575062000254565b601f01602090049060005260206000209081019062000253919062000257565b5b50565b5b808211156200027257600081600090555060010162000258565b5090565b600081519050919050565b7f4e487b7100000000000000000000000000000000000000000000000000000000600052604160045260246000fd5b7f4e487b7100000000000000000000000000000000000000000000000000000000600052602260045260246000fd5b60006002820490506001821680620002f857607f821691505b6020821081036200030e576200030d620002b0565b5b50919050565b60008190508160005260206000209050919050565b60006020601f8301049050919050565b600082821b905092915050565b600060088302620003787fffffffffffffffffffffffffffffffffffffffffffffffffffffffffffffffff8262000339565b62000384868362000339565b95508019841693508086168417925050509392505050565b6000819050919050565b6000819050919050565b6000620003d1620003cb620003c5846200039c565b620003a6565b6200039c565b9050919050565b6000819050919050565b620003ed83620003b0565b62000405620003fc82620003d8565b84845462000346565b825550505050565b600090565b6200041c6200040d565b62000429818484620003e2565b505050565b5b8181101562000451576200044560008262000412565b6001810190506200042f565b5050565b601f821115620004a0576200046a8162000314565b620004758462000329565b8101602085101562000485578190505b6200049d620004948562000329565b8301826200042e565b50505b505050565b600082821c905092915050565b6000620004c560001984600802620004a5565b1980831691505092915050565b6000620004e08383620004b2565b9150826002028217905092915050565b620004fb8262000276565b67ffffffffffffffff81111562000517576200051662000281565b5b620005238254620002df565b6200053082828562000455565b600060209050601f83116001811462000568576000841562000553578287015190505b6200055f8582620004d2565b865550620005cf565b601f198416620005788662000314565b60005b82811015620005a2578489015182556001820191506020850194506020810190506200057b565b86831015620005c25784890151620005be601f891682620004b2565b8355505b6001600288020188555050505b505050505050565b612c4c80620005e76000396000f3fe6080604052600436106101145760003560e01c806386e1c04f116100a0578063b40f169111610064578063b40f1691146103d8578063dabf826a14610415578063e8e0b05c14610440578063f0d950901461046b578063f851a4401461049657610114565b806386e1c04f146102dc57806389c47f081461031957806396b80d08146103425780639921b94b1461036d578063a9583c221461039857610114565b806343c79a5c116100e757806343c79a5c14610204578063686fc54e14610241578063767960a41461025d5780637933570c14610286578063833b46bb146102b357610114565b80630869cfbc1461011957806312dc90131461015d57806318a231a91461019c5780633ba51e7c146101c7575b600080fd5b34801561012557600080fd5b50610140600480360381019061013b9190611a58565b6104c1565b604051610154989796959493929190611bcf565b60405180910390f35b34801561016957600080fd5b50610184600480360381019061017f9190611c8e565b6106db565b60405161019393929190611cbb565b60405180910390f35b3480156101a857600080fd5b506101b16107dd565b6040516101be9190611db7565b60405180910390f35b3480156101d357600080fd5b506101ee60048036038101906101e99190611c8e565b61086b565b6040516101fb9190611dd9565b60405180910390f35b34801561021057600080fd5b5061022b60048036038101906102269190611f29565b6108aa565b6040516102389190611f85565b60405180910390f35b61025b60048036038101906102569190611f29565b6108ef565b005b34801561026957600080fd5b50610284600480360381019061027f9190611ff1565b610c77565b005b34801561029257600080fd5b5061029b610ddd565b6040516102aa93929190612150565b60405180910390f35b3480156102bf57600080fd5b506102da60048036038101906102d5919061219c565b6110ad565b005b3480156102e857600080fd5b5061030360048036038101906102fe9190611c8e565b6112a3565b6040516103109190612214565b60405180910390f35b34801561032557600080fd5b50610340600480360381019061033b9190612236565b61134f565b005b34801561034e57600080fd5b506103576115e6565b6040516103649190612403565b60405180910390f35b34801561037957600080fd5b50610382611783565b60405161038f9190612425565b60405180910390f35b3480156103a457600080fd5b506103bf60048036038101906103ba9190611a58565b611789565b6040516103cf9493929190612440565b60405180910390f35b3480156103e457600080fd5b506103ff60048036038101906103fa9190611c8e565b6118e9565b60405161040c9190611dd9565b60405180910390f35b34801561042157600080fd5b5061042a611928565b6040516104379190612425565b60405180910390f35b34801561044c57600080fd5b5061045561192e565b6040516104629190612425565b60405180910390f35b34801561047757600080fd5b50610480611934565b60405161048d9190611db7565b60405180910390f35b3480156104a257600080fd5b506104ab6119c2565b6040516104b89190611dd9565b60405180910390f35b60036020528060005260406000206000915090508060000154908060010154908060020180546104f0906124c2565b80601f016020809104026020016040519081016040528092919081815260200182805461051c906124c2565b80156105695780601f1061053e57610100808354040283529160200191610569565b820191906000526020600020905b81548152906001019060200180831161054c57829003601f168201915b5050505050908060030160009054906101000a900460ff1690806004018054610591906124c2565b80601f01602080910402602001604051908101604052809291908181526020018280546105bd906124c2565b801561060a5780601f106105df5761010080835404028352916020019161060a565b820191906000526020600020905b8154815290600101906020018083116105ed57829003601f168201915b50505050509080600501805461061f906124c2565b80601f016020809104026020016040519081016040528092919081815260200182805461064b906124c2565b80156106985780601f1061066d57610100808354040283529160200191610698565b820191906000526020600020905b81548152906001019060200180831161067b57829003601f168201915b5050505050908060060160009054906101000a900460ff16908060060160019054906101000a900473ffffffffffffffffffffffffffffffffffffffff16905088565b600781815481106106eb57600080fd5b90600052602060002090600302016000915090508060000160009054906101000a900473ffffffffffffffffffffffffffffffffffffffff1690806001018054610734906124c2565b80601f0160208091040260200160405190810160405280929190818152602001828054610760906124c2565b80156107ad5780601f10610782576101008083540402835291602001916107ad565b820191906000526020600020905b81548152906001019060200180831161079057829003601f168201915b5050505050908060020160009054906101000a900473ffffffffffffffffffffffffffffffffffffffff16905083565b6060600580548060200260200160405190810160405280929190818152602001828054801561086157602002820191906000526020600020905b8160009054906101000a900473ffffffffffffffffffffffffffffffffffffffff1673ffffffffffffffffffffffffffffffffffffffff1681526020019060010190808311610817575b5050505050905090565b6006818154811061087b57600080fd5b906000526020600020016000915054906101000a900473ffffffffffffffffffffffffffffffffffffffff1681565b6009602052816000526040600020818051602081018201805184825260208301602085012081835280955050505050506000915091509054906101000a900460ff1681565b6000600360003373ffffffffffffffffffffffffffffffffffffffff1673ffffffffffffffffffffffffffffffffffffffff1681526020019081526020016000206000015403610974576040517f08c379a000000000000000000000000000000000000000000000000000000000815260040161096b90612565565b60405180910390fd5b6000600460008473ffffffffffffffffffffffffffffffffffffffff1673ffffffffffffffffffffffffffffffffffffffff16815260200190815260200160002060000154036109f9576040517f08c379a00000000000000000000000000000000000000000000000000000000081526004016109f0906125d1565b60405180910390fd5b600a54341015610a3e576040517f08c379a0000000000000000000000000000000000000000000000000000000008152600401610a359061263d565b60405180910390fd5b600960008373ffffffffffffffffffffffffffffffffffffffff1673ffffffffffffffffffffffffffffffffffffffff16815260200190815260200160002081604051610a8b9190612699565b908152602001604051809103902060009054906101000a900460ff1615610ae7576040517f08c379a0000000000000000000000000000000000000000000000000000000008152600401610ade906126fc565b60405180910390fd5b6001600960008473ffffffffffffffffffffffffffffffffffffffff1673ffffffffffffffffffffffffffffffffffffffff16815260200190815260200160002082604051610b369190612699565b908152602001604051809103902060006101000a81548160ff021916908315150217905550600760405180606001604052803373ffffffffffffffffffffffffffffffffffffffff1681526020018381526020018473ffffffffffffffffffffffffffffffffffffffff16815250908060018154018082558091505060019003906000526020600020906003020160009091909190915060008201518160000160006101000a81548173ffffffffffffffffffffffffffffffffffffffff021916908373ffffffffffffffffffffffffffffffffffffffff1602179055506020820151816001019081610c2991906128c8565b5060408201518160020160006101000a81548173ffffffffffffffffffffffffffffffffffffffff021916908373ffffffffffffffffffffffffffffffffffffffff16021790555050505050565b60008054906101000a900473ffffffffffffffffffffffffffffffffffffffff1673ffffffffffffffffffffffffffffffffffffffff163373ffffffffffffffffffffffffffffffffffffffff1614610d05576040517f08c379a0000000000000000000000000000000000000000000000000000000008152600401610cfc90612a0c565b60405180910390fd5b6000600360008573ffffffffffffffffffffffffffffffffffffffff1673ffffffffffffffffffffffffffffffffffffffff16815260200190815260200160002090506000816000015403610d8f576040517f08c379a0000000000000000000000000000000000000000000000000000000008152600401610d8690612a78565b60405180910390fd5b828160030160006101000a81548160ff02191690836002811115610db657610db5611b2e565b5b0217905550818160060160006101000a81548160ff02191690831515021790555050505050565b6060806060600060078054905090508067ffffffffffffffff811115610e0657610e05611dfe565b5b604051908082528060200260200182016040528015610e345781602001602082028036833780820191505090505b5093508067ffffffffffffffff811115610e5157610e50611dfe565b5b604051908082528060200260200182016040528015610e8457816020015b6060815260200190600190039081610e6f5790505b5092508067ffffffffffffffff811115610ea157610ea0611dfe565b5b604051908082528060200260200182016040528015610ecf5781602001602082028036833780820191505090505b50915060005b818110156110a657600060078281548110610ef357610ef2612a98565b5b906000526020600020906003020190508060000160009054906101000a900473ffffffffffffffffffffffffffffffffffffffff16868381518110610f3b57610f3a612a98565b5b602002602001019073ffffffffffffffffffffffffffffffffffffffff16908173ffffffffffffffffffffffffffffffffffffffff1681525050806001018054610f84906124c2565b80601f0160208091040260200160405190810160405280929190818152602001828054610fb0906124c2565b8015610ffd5780601f10610fd257610100808354040283529160200191610ffd565b820191906000526020600020905b815481529060010190602001808311610fe057829003601f168201915b505050505085838151811061101557611014612a98565b5b60200260200101819052508060020160009054906101000a900473ffffffffffffffffffffffffffffffffffffffff1684838151811061105857611057612a98565b5b602002602001019073ffffffffffffffffffffffffffffffffffffffff16908173ffffffffffffffffffffffffffffffffffffffff168152505050808061109e90612af6565b915050610ed5565b5050909192565b6000600460003373ffffffffffffffffffffffffffffffffffffffff1673ffffffffffffffffffffffffffffffffffffffff1681526020019081526020016000206000015414611132576040517f08c379a000000000000000000000000000000000000000000000000000000000815260040161112990612b8a565b60405180910390fd5b604051806080016040528060026000815461114c90612af6565b91905081905581526020018381526020018281526020013373ffffffffffffffffffffffffffffffffffffffff16815250600460003373ffffffffffffffffffffffffffffffffffffffff1673ffffffffffffffffffffffffffffffffffffffff1681526020019081526020016000206000820151816000015560208201518160010190816111db91906128c8565b5060408201518160020190816111f191906128c8565b5060608201518160030160006101000a81548173ffffffffffffffffffffffffffffffffffffffff021916908373ffffffffffffffffffffffffffffffffffffffff1602179055509050506006339080600181540180825580915050600190039060005260206000200160009091909190916101000a81548173ffffffffffffffffffffffffffffffffffffffff021916908373ffffffffffffffffffffffffffffffffffffffff1602179055505050565b600881815481106112b357600080fd5b9060005260206000200160009150905080546112ce906124c2565b80601f01602080910402602001604051908101604052809291908181526020018280546112fa906124c2565b80156113475780601f1061131c57610100808354040283529160200191611347565b820191906000526020600020905b81548152906001019060200180831161132a57829003601f168201915b505050505081565b6000600360003373ffffffffffffffffffffffffffffffffffffffff1673ffffffffffffffffffffffffffffffffffffffff16815260200190815260200160002060000154146113d4576040517f08c379a00000000000000000000000000000000000000000000000000000000081526004016113cb90612bf6565b60405180910390fd5b6040518061010001604052806001600081546113ef90612af6565b91905081905581526020018581526020018481526020016000600281111561141a57611419611b2e565b5b81526020018381526020018281526020016000151581526020013373ffffffffffffffffffffffffffffffffffffffff16815250600360003373ffffffffffffffffffffffffffffffffffffffff1673ffffffffffffffffffffffffffffffffffffffff168152602001908152602001600020600082015181600001556020820151816001015560408201518160020190816114b691906128c8565b5060608201518160030160006101000a81548160ff021916908360028111156114e2576114e1611b2e565b5b021790555060808201518160040190816114fc91906128c8565b5060a082015181600501908161151291906128c8565b5060c08201518160060160006101000a81548160ff02191690831515021790555060e08201518160060160016101000a81548173ffffffffffffffffffffffffffffffffffffffff021916908373ffffffffffffffffffffffffffffffffffffffff1602179055509050506005339080600181540180825580915050600190039060005260206000200160009091909190916101000a81548173ffffffffffffffffffffffffffffffffffffffff021916908373ffffffffffffffffffffffffffffffffffffffff16021790555050505050565b60606007805480602002602001604051908101604052809291908181526020016000905b8282101561177a57838290600052602060002090600302016040518060600160405290816000820160009054906101000a900473ffffffffffffffffffffffffffffffffffffffff1673ffffffffffffffffffffffffffffffffffffffff1673ffffffffffffffffffffffffffffffffffffffff168152602001600182018054611693906124c2565b80601f01602080910402602001604051908101604052809291908181526020018280546116bf906124c2565b801561170c5780601f106116e15761010080835404028352916020019161170c565b820191906000526020600020905b8154815290600101906020018083116116ef57829003601f168201915b505050505081526020016002820160009054906101000a900473ffffffffffffffffffffffffffffffffffffffff1673ffffffffffffffffffffffffffffffffffffffff1673ffffffffffffffffffffffffffffffffffffffff16815250508152602001906001019061160a565b50505050905090565b60025481565b60046020528060005260406000206000915090508060000154908060010180546117b2906124c2565b80601f01602080910402602001604051908101604052809291908181526020018280546117de906124c2565b801561182b5780601f106118005761010080835404028352916020019161182b565b820191906000526020600020905b81548152906001019060200180831161180e57829003601f168201915b505050505090806002018054611840906124c2565b80601f016020809104026020016040519081016040528092919081815260200182805461186c906124c2565b80156118b95780601f1061188e576101008083540402835291602001916118b9565b820191906000526020600020905b81548152906001019060200180831161189c57829003601f168201915b5050505050908060030160009054906101000a900473ffffffffffffffffffffffffffffffffffffffff16905084565b600581815481106118f957600080fd5b906000526020600020016000915054906101000a900473ffffffffffffffffffffffffffffffffffffffff1681565b600a5481565b60015481565b606060068054806020026020016040519081016040528092919081815260200182805480156119b857602002820191906000526020600020905b8160009054906101000a900473ffffffffffffffffffffffffffffffffffffffff1673ffffffffffffffffffffffffffffffffffffffff168152602001906001019080831161196e575b5050505050905090565b60008054906101000a900473ffffffffffffffffffffffffffffffffffffffff1681565b6000604051905090565b600080fd5b600080fd5b600073ffffffffffffffffffffffffffffffffffffffff82169050919050565b6000611a25826119fa565b9050919050565b611a3581611a1a565b8114611a4057600080fd5b50565b600081359050611a5281611a2c565b92915050565b600060208284031215611a6e57611a6d6119f0565b5b6000611a7c84828501611a43565b91505092915050565b6000819050919050565b611a9881611a85565b82525050565b600081519050919050565b600082825260208201905092915050565b60005b83811015611ad8578082015181840152602081019050611abd565b60008484015250505050565b6000601f19601f8301169050919050565b6000611b0082611a9e565b611b0a8185611aa9565b9350611b1a818560208601611aba565b611b2381611ae4565b840191505092915050565b7f4e487b7100000000000000000000000000000000000000000000000000000000600052602160045260246000fd5b60038110611b6e57611b6d611b2e565b5b50565b6000819050611b7f82611b5d565b919050565b6000611b8f82611b71565b9050919050565b611b9f81611b84565b82525050565b60008115159050919050565b611bba81611ba5565b82525050565b611bc981611a1a565b82525050565b600061010082019050611be5600083018b611a8f565b611bf2602083018a611a8f565b8181036040830152611c048189611af5565b9050611c136060830188611b96565b8181036080830152611c258187611af5565b905081810360a0830152611c398186611af5565b9050611c4860c0830185611bb1565b611c5560e0830184611bc0565b9998505050505050505050565b611c6b81611a85565b8114611c7657600080fd5b50565b600081359050611c8881611c62565b92915050565b600060208284031215611ca457611ca36119f0565b5b6000611cb284828501611c79565b91505092915050565b6000606082019050611cd06000830186611bc0565b8181036020830152611ce28185611af5565b9050611cf16040830184611bc0565b949350505050565b600081519050919050565b600082825260208201905092915050565b6000819050602082019050919050565b611d2e81611a1a565b82525050565b6000611d408383611d25565b60208301905092915050565b6000602082019050919050565b6000611d6482611cf9565b611d6e8185611d04565b9350611d7983611d15565b8060005b83811015611daa578151611d918882611d34565b9750611d9c83611d4c565b925050600181019050611d7d565b5085935050505092915050565b60006020820190508181036000830152611dd18184611d59565b905092915050565b6000602082019050611dee6000830184611bc0565b92915050565b600080fd5b600080fd5b7f4e487b7100000000000000000000000000000000000000000000000000000000600052604160045260246000fd5b611e3682611ae4565b810181811067ffffffffffffffff82111715611e5557611e54611dfe565b5b80604052505050565b6000611e686119e6565b9050611e748282611e2d565b919050565b600067ffffffffffffffff821115611e9457611e93611dfe565b5b611e9d82611ae4565b9050602081019050919050565b82818337600083830152505050565b6000611ecc611ec784611e79565b611e5e565b905082815260208101848484011115611ee857611ee7611df9565b5b611ef3848285611eaa565b509392505050565b600082601f830112611f1057611f0f611df4565b5b8135611f20848260208601611eb9565b91505092915050565b60008060408385031215611f4057611f3f6119f0565b5b6000611f4e85828601611a43565b925050602083013567ffffffffffffffff811115611f6f57611f6e6119f5565b5b611f7b85828601611efb565b9150509250929050565b6000602082019050611f9a6000830184611bb1565b92915050565b60038110611fad57600080fd5b50565b600081359050611fbf81611fa0565b92915050565b611fce81611ba5565b8114611fd957600080fd5b50565b600081359050611feb81611fc5565b92915050565b60008060006060848603121561200a576120096119f0565b5b600061201886828701611a43565b935050602061202986828701611fb0565b925050604061203a86828701611fdc565b9150509250925092565b600081519050919050565b600082825260208201905092915050565b6000819050602082019050919050565b600082825260208201905092915050565b600061208c82611a9e565b6120968185612070565b93506120a6818560208601611aba565b6120af81611ae4565b840191505092915050565b60006120c68383612081565b905092915050565b6000602082019050919050565b60006120e682612044565b6120f0818561204f565b93508360208202850161210285612060565b8060005b8581101561213e578484038952815161211f85826120ba565b945061212a836120ce565b925060208a01995050600181019050612106565b50829750879550505050505092915050565b6000606082019050818103600083015261216a8186611d59565b9050818103602083015261217e81856120db565b905081810360408301526121928184611d59565b9050949350505050565b600080604083850312156121b3576121b26119f0565b5b600083013567ffffffffffffffff8111156121d1576121d06119f5565b5b6121dd85828601611efb565b925050602083013567ffffffffffffffff8111156121fe576121fd6119f5565b5b61220a85828601611efb565b9150509250929050565b6000602082019050818103600083015261222e8184611af5565b905092915050565b600080600080608085870312156122505761224f6119f0565b5b600061225e87828801611c79565b945050602085013567ffffffffffffffff81111561227f5761227e6119f5565b5b61228b87828801611efb565b935050604085013567ffffffffffffffff8111156122ac576122ab6119f5565b5b6122b887828801611efb565b925050606085013567ffffffffffffffff8111156122d9576122d86119f5565b5b6122e587828801611efb565b91505092959194509250565b600081519050919050565b600082825260208201905092915050565b6000819050602082019050919050565b60006060830160008301516123356000860182611d25565b506020830151848203602086015261234d8282612081565b91505060408301516123626040860182611d25565b508091505092915050565b6000612379838361231d565b905092915050565b6000602082019050919050565b6000612399826122f1565b6123a381856122fc565b9350836020820285016123b58561230d565b8060005b858110156123f157848403895281516123d2858261236d565b94506123dd83612381565b925060208a019950506001810190506123b9565b50829750879550505050505092915050565b6000602082019050818103600083015261241d818461238e565b905092915050565b600060208201905061243a6000830184611a8f565b92915050565b60006080820190506124556000830187611a8f565b81810360208301526124678186611af5565b9050818103604083015261247b8185611af5565b905061248a6060830184611bc0565b95945050505050565b7f4e487b7100000000000000000000000000000000000000000000000000000000600052602260045260246000fd5b600060028204905060018216806124da57607f821691505b6020821081036124ed576124ec612493565b5b50919050565b7f4f6e6c7920726567697374657265642070617469656e74732063616e2070657260008201527f666f726d207468697320616374696f6e00000000000000000000000000000000602082015250565b600061254f603083611aa9565b915061255a826124f3565b604082019050919050565b6000602082019050818103600083015261257e81612542565b9050919050565b7f446f63746f72206e6f7420666f756e6400000000000000000000000000000000600082015250565b60006125bb601083611aa9565b91506125c682612585565b602082019050919050565b600060208201905081810360008301526125ea816125ae565b9050919050565b7f496e73756666696369656e74206170706f696e746d656e742066656500000000600082015250565b6000612627601c83611aa9565b9150612632826125f1565b602082019050919050565b600060208201905081810360008301526126568161261a565b9050919050565b600081905092915050565b600061267382611a9e565b61267d818561265d565b935061268d818560208601611aba565b80840191505092915050565b60006126a58284612668565b915081905092915050565b7f54696d6520736c6f7420616c726561647920626f6f6b65640000000000000000600082015250565b60006126e6601883611aa9565b91506126f1826126b0565b602082019050919050565b60006020820190508181036000830152612715816126d9565b9050919050565b60008190508160005260206000209050919050565b60006020601f8301049050919050565b600082821b905092915050565b60006008830261277e7fffffffffffffffffffffffffffffffffffffffffffffffffffffffffffffffff82612741565b6127888683612741565b95508019841693508086168417925050509392505050565b6000819050919050565b60006127c56127c06127bb84611a85565b6127a0565b611a85565b9050919050565b6000819050919050565b6127df836127aa565b6127f36127eb826127cc565b84845461274e565b825550505050565b600090565b6128086127fb565b6128138184846127d6565b505050565b5b818110156128375761282c600082612800565b600181019050612819565b5050565b601f82111561287c5761284d8161271c565b61285684612731565b81016020851015612865578190505b61287961287185612731565b830182612818565b50505b505050565b600082821c905092915050565b600061289f60001984600802612881565b1980831691505092915050565b60006128b8838361288e565b9150826002028217905092915050565b6128d182611a9e565b67ffffffffffffffff8111156128ea576128e9611dfe565b5b6128f482546124c2565b6128ff82828561283b565b600060209050601f8311600181146129325760008415612920578287015190505b61292a85826128ac565b865550612992565b601f1984166129408661271c565b60005b8281101561296857848901518255600182019150602085019450602081019050612943565b868310156129855784890151612981601f89168261288e565b8355505b6001600288020188555050505b505050505050565b7f4f6e6c792061646d696e2063616e20706572666f726d2074686973206163746960008201527f6f6e000000000000000000000000000000000000000000000000000000000000602082015250565b60006129f6602283611aa9565b9150612a018261299a565b604082019050919050565b60006020820190508181036000830152612a25816129e9565b9050919050565b7f50617469656e74206e6f7420666f756e64000000000000000000000000000000600082015250565b6000612a62601183611aa9565b9150612a6d82612a2c565b602082019050919050565b60006020820190508181036000830152612a9181612a55565b9050919050565b7f4e487b7100000000000000000000000000000000000000000000000000000000600052603260045260246000fd5b7f4e487b7100000000000000000000000000000000000000000000000000000000600052601160045260246000fd5b6000612b0182611a85565b91507fffffffffffffffffffffffffffffffffffffffffffffffffffffffffffffffff8203612b3357612b32612ac7565b5b600182019050919050565b7f446f63746f7220616c7265616479207265676973746572656400000000000000600082015250565b6000612b74601983611aa9565b9150612b7f82612b3e565b602082019050919050565b60006020820190508181036000830152612ba381612b67565b9050919050565b7f50617469656e7420616c72656164792072656769737465726564000000000000600082015250565b6000612be0601a83611aa9565b9150612beb82612baa565b602082019050919050565b60006020820190508181036000830152612c0f81612bd3565b905091905056fea264697066735822122039b935e1ac7893591b20ca74ae5bd0ba9162a21b133703a434b3db8ee7e86c6764736f6c63430008100033",
  "immutableReferences": {},
  "source": "// SPDX-License-Identifier: MIT\npragma solidity >=0.7.0 <0.9.0;\n\ncontract Election {\n    enum VaccineStatus { NOT_VACCINATED, ONE_DOSE, TWO_DOSE }\n\n    struct Patient {\n        uint id;\n        uint age;\n        string gender;\n        VaccineStatus vaccine_status;\n        string district;\n        string symptoms_details;\n        bool is_dead;\n        address patientAddress;\n    }\n\n    struct Doctor {\n        uint id;\n        string name;\n        string specialization;\n        address doctorAddress;\n    }\n\n    struct Appointment {\n        address patient;\n        string timeSlot;\n        address doctor;\n    }\n\n    address public admin;\n    uint public patientCounter = 0;\n    uint public doctorCounter = 0;\n\n    mapping(address => Patient) public patients;\n    mapping(address => Doctor) public doctors;\n\n    address[] public patientAddresses; // Array for patient addresses\n    address[] public doctorAddresses;  // Array for doctor addresses\n\n    Appointment[] public appointments;\n\n    string[] public timeSlots = [\n        \"Slot 1: 4:00 PM - 4:10 PM\",\n        \"Slot 2: 4:11 PM - 4:20 PM\",\n        \"Slot 3: 4:21 PM - 4:30 PM\",\n        \"Slot 4: 4:31 PM - 4:40 PM\"\n    ];\n\n    mapping(address => mapping(string => bool)) public doctorBookings;\n    uint public appointmentFee = 0.01 ether;\n\n    modifier onlyAdmin() {\n        require(msg.sender == admin, \"Only admin can perform this action\");\n        _;\n    }\n\n    modifier onlyRegisteredPatient() {\n        require(patients[msg.sender].id != 0, \"Only registered patients can perform this action\");\n        _;\n    }\n\n    modifier onlyRegisteredDoctor() {\n        require(doctors[msg.sender].id != 0, \"Only registered doctors can perform this action\");\n        _;\n    }\n\n    constructor() {\n        admin = 0xF7Cd5E272fC093357c961fE68a922A75D40712e1;\n    }\n\n    function registerPatient(\n        uint _age,\n        string memory _gender,\n        string memory _district,\n        string memory _symptoms_details\n    ) public {\n        require(patients[msg.sender].id == 0, \"Patient already registered\");\n\n        patients[msg.sender] = Patient({\n            id: ++patientCounter,\n            age: _age,\n            gender: _gender,\n            vaccine_status: VaccineStatus.NOT_VACCINATED,\n            district: _district,\n            symptoms_details: _symptoms_details,\n            is_dead: false,\n            patientAddress: msg.sender\n        });\n\n        patientAddresses.push(msg.sender); // Store patient address\n    }\n    function updatePatientData(\n    address _patientAddress,\n    VaccineStatus _vaccine_status,\n    bool _is_dead\n) public onlyAdmin {\n    Patient storage patient = patients[_patientAddress];\n    require(patient.id != 0, \"Patient not found\");\n\n    patient.vaccine_status = _vaccine_status;\n    patient.is_dead = _is_dead;\n}\n\n\n    function registerDoctor(\n        string memory _name,\n        string memory _specialization\n    ) public {\n        require(doctors[msg.sender].id == 0, \"Doctor already registered\");\n\n        doctors[msg.sender] = Doctor({\n            id: ++doctorCounter,\n            name: _name,\n            specialization: _specialization,\n            doctorAddress: msg.sender\n        });\n\n        doctorAddresses.push(msg.sender); // Store doctor address\n    }\n\n    function getAllPatients() public view returns (address[] memory) {\n        return patientAddresses;\n    }\n\n    function getAllDoctors() public view returns (address[] memory) {\n        return doctorAddresses;\n    }\n\n    // Add bookAppointment function\n    function bookAppointment(address doctor, string memory timeSlot) public payable onlyRegisteredPatient {\n        require(doctors[doctor].id != 0, \"Doctor not found\");\n        require(msg.value >= appointmentFee, \"Insufficient appointment fee\");\n        require(!doctorBookings[doctor][timeSlot], \"Time slot already booked\");\n\n        doctorBookings[doctor][timeSlot] = true;\n\n        appointments.push(Appointment({\n            patient: msg.sender,\n            timeSlot: timeSlot,\n            doctor: doctor\n        }));\n    }\n\n    // Retrieve all appointments\n    function getAppointments() public view returns (Appointment[] memory) {\n        return appointments;\n    }\nfunction getAllAppointments() public view returns (\n    address[] memory _patients,\n    string[] memory _timeSlots,\n    address[] memory _doctors\n) {\n    uint totalAppointments = appointments.length;\n\n    // Initialize arrays for return\n    _patients = new address[](totalAppointments);\n    _timeSlots = new string[](totalAppointments);\n    _doctors = new address[](totalAppointments);\n\n    // Populate arrays with appointment data\n    for (uint i = 0; i < totalAppointments; i++) {\n        Appointment storage appointment = appointments[i];\n        _patients[i] = appointment.patient;\n        _timeSlots[i] = appointment.timeSlot;\n        _doctors[i] = appointment.doctor;\n    }\n\n    return (_patients, _timeSlots, _doctors);\n}\n\n}\n\n",
  "sourcePath": "/home/abrar/Documents/DApp_466_ADR_2024/election/contracts/Election.sol",
  "compiler": {
    "name": "solc",
    "version": "0.8.16+commit.07a7930e.Emscripten.clang"
  },
  "schemaVersion": "3.4.16",
  "updatedAt": "2025-04-16T15:21:54.011Z",
  "devdoc": {
    "kind": "dev",
    "methods": {},
    "version": 1
  },
  "userdoc": {
    "kind": "user",
    "methods": {},
    "version": 1
  }
}