{
  "contractName": "Election",
  "abi": [
    {
      "inputs": [],
      "stateMutability": "nonpayable",
      "type": "constructor"
    },
    {
      "inputs": [],
      "name": "admin",
      "outputs": [
        {
          "internalType": "address",
          "name": "",
          "type": "address"
        }
      ],
      "stateMutability": "view",
      "type": "function",
      "constant": true
    },
    {
      "inputs": [],
      "name": "appointmentFee",
      "outputs": [
        {
          "internalType": "uint256",
          "name": "",
          "type": "uint256"
        }
      ],
      "stateMutability": "view",
      "type": "function",
      "constant": true
    },
    {
      "inputs": [
        {
          "internalType": "uint256",
          "name": "",
          "type": "uint256"
        }
      ],
      "name": "appointments",
      "outputs": [
        {
          "internalType": "address",
          "name": "patient",
          "type": "address"
        },
        {
          "internalType": "string",
          "name": "timeSlot",
          "type": "string"
        },
        {
          "internalType": "address",
          "name": "doctor",
          "type": "address"
        }
      ],
      "stateMutability": "view",
      "type": "function",
      "constant": true
    },
    {
      "inputs": [
        {
          "internalType": "address",
          "name": "",
          "type": "address"
        },
        {
          "internalType": "string",
          "name": "",
          "type": "string"
        }
      ],
      "name": "doctorBookings",
      "outputs": [
        {
          "internalType": "bool",
          "name": "",
          "type": "bool"
        }
      ],
      "stateMutability": "view",
      "type": "function",
      "constant": true
    },
    {
      "inputs": [],
      "name": "doctorCounter",
      "outputs": [
        {
          "internalType": "uint256",
          "name": "",
          "type": "uint256"
        }
      ],
      "stateMutability": "view",
      "type": "function",
      "constant": true
    },
    {
      "inputs": [
        {
          "internalType": "address",
          "name": "",
          "type": "address"
        }
      ],
      "name": "doctors",
      "outputs": [
        {
          "internalType": "uint256",
          "name": "id",
          "type": "uint256"
        },
        {
          "internalType": "string",
          "name": "name",
          "type": "string"
        },
        {
          "internalType": "string",
          "name": "specialization",
          "type": "string"
        },
        {
          "internalType": "address",
          "name": "doctorAddress",
          "type": "address"
        }
      ],
      "stateMutability": "view",
      "type": "function",
      "constant": true
    },
    {
      "inputs": [],
      "name": "patientCounter",
      "outputs": [
        {
          "internalType": "uint256",
          "name": "",
          "type": "uint256"
        }
      ],
      "stateMutability": "view",
      "type": "function",
      "constant": true
    },
    {
      "inputs": [
        {
          "internalType": "address",
          "name": "",
          "type": "address"
        }
      ],
      "name": "patients",
      "outputs": [
        {
          "internalType": "uint256",
          "name": "id",
          "type": "uint256"
        },
        {
          "internalType": "uint256",
          "name": "age",
          "type": "uint256"
        },
        {
          "internalType": "string",
          "name": "gender",
          "type": "string"
        },
        {
          "internalType": "enum Election.VaccineStatus",
          "name": "vaccine_status",
          "type": "uint8"
        },
        {
          "internalType": "string",
          "name": "district",
          "type": "string"
        },
        {
          "internalType": "string",
          "name": "symptoms_details",
          "type": "string"
        },
        {
          "internalType": "bool",
          "name": "is_dead",
          "type": "bool"
        },
        {
          "internalType": "address",
          "name": "patientAddress",
          "type": "address"
        }
      ],
      "stateMutability": "view",
      "type": "function",
      "constant": true
    },
    {
      "inputs": [
        {
          "internalType": "uint256",
          "name": "",
          "type": "uint256"
        }
      ],
      "name": "timeSlots",
      "outputs": [
        {
          "internalType": "string",
          "name": "",
          "type": "string"
        }
      ],
      "stateMutability": "view",
      "type": "function",
      "constant": true
    },
    {
      "inputs": [
        {
          "internalType": "uint256",
          "name": "_age",
          "type": "uint256"
        },
        {
          "internalType": "string",
          "name": "_gender",
          "type": "string"
        },
        {
          "internalType": "string",
          "name": "_district",
          "type": "string"
        },
        {
          "internalType": "string",
          "name": "_symptoms_details",
          "type": "string"
        }
      ],
      "name": "registerPatient",
      "outputs": [],
      "stateMutability": "nonpayable",
      "type": "function"
    },
    {
      "inputs": [
        {
          "internalType": "string",
          "name": "_name",
          "type": "string"
        },
        {
          "internalType": "string",
          "name": "_specialization",
          "type": "string"
        }
      ],
      "name": "registerDoctor",
      "outputs": [],
      "stateMutability": "nonpayable",
      "type": "function"
    },
    {
      "inputs": [
        {
          "internalType": "address",
          "name": "_patientAddress",
          "type": "address"
        },
        {
          "internalType": "enum Election.VaccineStatus",
          "name": "_vaccine_status",
          "type": "uint8"
        },
        {
          "internalType": "bool",
          "name": "_is_dead",
          "type": "bool"
        }
      ],
      "name": "updatePatientData",
      "outputs": [],
      "stateMutability": "nonpayable",
      "type": "function"
    },
    {
      "inputs": [
        {
          "internalType": "address",
          "name": "doctor",
          "type": "address"
        },
        {
          "internalType": "string",
          "name": "timeSlot",
          "type": "string"
        }
      ],
      "name": "bookAppointment",
      "outputs": [],
      "stateMutability": "payable",
      "type": "function",
      "payable": true
    },
    {
      "inputs": [],
      "name": "withdrawFees",
      "outputs": [],
      "stateMutability": "nonpayable",
      "type": "function"
    },
    {
      "inputs": [],
      "name": "getAppointments",
      "outputs": [
        {
          "components": [
            {
              "internalType": "address",
              "name": "patient",
              "type": "address"
            },
            {
              "internalType": "string",
              "name": "timeSlot",
              "type": "string"
            },
            {
              "internalType": "address",
              "name": "doctor",
              "type": "address"
            }
          ],
          "internalType": "struct Election.Appointment[]",
          "name": "",
          "type": "tuple[]"
        }
      ],
      "stateMutability": "view",
      "type": "function",
      "constant": true
    },
    {
      "inputs": [
        {
          "internalType": "address",
          "name": "doctor",
          "type": "address"
        }
      ],
      "name": "getDoctorSchedule",
      "outputs": [
        {
          "components": [
            {
              "internalType": "address",
              "name": "patient",
              "type": "address"
            },
            {
              "internalType": "string",
              "name": "timeSlot",
              "type": "string"
            },
            {
              "internalType": "address",
              "name": "doctor",
              "type": "address"
            }
          ],
          "internalType": "struct Election.Appointment[]",
          "name": "",
          "type": "tuple[]"
        }
      ],
      "stateMutability": "view",
      "type": "function",
      "constant": true
    },
    {
      "inputs": [],
      "name": "seeAllAppointments",
      "outputs": [
        {
          "components": [
            {
              "internalType": "address",
              "name": "patient",
              "type": "address"
            },
            {
              "internalType": "string",
              "name": "timeSlot",
              "type": "string"
            },
            {
              "internalType": "address",
              "name": "doctor",
              "type": "address"
            }
          ],
          "internalType": "struct Election.Appointment[]",
          "name": "",
          "type": "tuple[]"
        }
      ],
      "stateMutability": "view",
      "type": "function",
      "constant": true
    }
  ],
  "bytecode": "0x60806040526000600155600060025560405180608001604052806040518060400160405280601981526020017f536c6f7420313a20343a303020504d202d20343a313020504d0000000000000081525081526020016040518060400160405280601981526020017f536c6f7420323a20343a313120504d202d20343a323020504d0000000000000081525081526020016040518060400160405280601981526020017f536c6f7420333a20343a323120504d202d20343a333020504d0000000000000081525081526020016040518060400160405280601981526020017f536c6f7420343a20343a333120504d202d20343a343020504d0000000000000081525081525060069060046200011592919062000175565b50662386f26fc100006008553480156200012e57600080fd5b50336000806101000a81548173ffffffffffffffffffffffffffffffffffffffff021916908373ffffffffffffffffffffffffffffffffffffffff160217905550620005c3565b828054828255906000526020600020908101928215620001c2579160200282015b82811115620001c1578251829081620001b09190620004dc565b509160200191906001019062000196565b5b509050620001d19190620001d5565b5090565b5b80821115620001f95760008181620001ef9190620001fd565b50600101620001d6565b5090565b5080546200020b90620002cb565b6000825580601f106200021f575062000240565b601f0160209004906000526020600020908101906200023f919062000243565b5b50565b5b808211156200025e57600081600090555060010162000244565b5090565b600081519050919050565b7f4e487b7100000000000000000000000000000000000000000000000000000000600052604160045260246000fd5b7f4e487b7100000000000000000000000000000000000000000000000000000000600052602260045260246000fd5b60006002820490506001821680620002e457607f821691505b602082108103620002fa57620002f96200029c565b5b50919050565b60008190508160005260206000209050919050565b60006020601f8301049050919050565b600082821b905092915050565b600060088302620003647fffffffffffffffffffffffffffffffffffffffffffffffffffffffffffffffff8262000325565b62000370868362000325565b95508019841693508086168417925050509392505050565b6000819050919050565b6000819050919050565b6000620003bd620003b7620003b18462000388565b62000392565b62000388565b9050919050565b6000819050919050565b620003d9836200039c565b620003f1620003e882620003c4565b84845462000332565b825550505050565b600090565b62000408620003f9565b62000415818484620003ce565b505050565b5b818110156200043d5762000431600082620003fe565b6001810190506200041b565b5050565b601f8211156200048c57620004568162000300565b620004618462000315565b8101602085101562000471578190505b62000489620004808562000315565b8301826200041a565b50505b505050565b600082821c905092915050565b6000620004b16000198460080262000491565b1980831691505092915050565b6000620004cc83836200049e565b9150826002028217905092915050565b620004e78262000262565b67ffffffffffffffff8111156200050357620005026200026d565b5b6200050f8254620002cb565b6200051c82828562000441565b600060209050601f8311600181146200055457600084156200053f578287015190505b6200054b8582620004be565b865550620005bb565b601f198416620005648662000300565b60005b828110156200058e5784890151825560018201915060208501945060208101905062000567565b86831015620005ae5784890151620005aa601f8916826200049e565b8355505b6001600288020188555050505b505050505050565b612c4f80620005d36000396000f3fe6080604052600436106100fe5760003560e01c806389c47f0811610095578063a9583c2211610064578063a9583c221461032f578063c5fae14d1461036f578063dabf826a146103ac578063e8e0b05c146103d7578063f851a44014610402576100fe565b806389c47f081461028557806396b80d08146102ae5780639921b94b146102d95780639d3700d714610304576100fe565b8063686fc54e116100d1578063686fc54e146101da578063767960a4146101f6578063833b46bb1461021f57806386e1c04f14610248576100fe565b80630869cfbc1461010357806312dc90131461014757806343c79a5c14610186578063476343ee146101c3575b600080fd5b34801561010f57600080fd5b5061012a60048036038101906101259190611b74565b61042d565b60405161013e989796959493929190611ceb565b60405180910390f35b34801561015357600080fd5b5061016e60048036038101906101699190611daa565b610647565b60405161017d93929190611dd7565b60405180910390f35b34801561019257600080fd5b506101ad60048036038101906101a89190611f4a565b610749565b6040516101ba9190611fa6565b60405180910390f35b3480156101cf57600080fd5b506101d861078e565b005b6101f460048036038101906101ef9190611f4a565b610885565b005b34801561020257600080fd5b5061021d60048036038101906102189190612012565b610c6c565b005b34801561022b57600080fd5b5061024660048036038101906102419190612065565b610e2c565b005b34801561025457600080fd5b5061026f600480360381019061026a9190611daa565b610fbf565b60405161027c91906120dd565b60405180910390f35b34801561029157600080fd5b506102ac60048036038101906102a791906120ff565b61106b565b005b3480156102ba57600080fd5b506102c361129f565b6040516102d09190612325565b60405180910390f35b3480156102e557600080fd5b506102ee61143c565b6040516102fb9190612347565b60405180910390f35b34801561031057600080fd5b50610319611442565b6040516103269190612325565b60405180910390f35b34801561033b57600080fd5b5061035660048036038101906103519190611b74565b6115df565b6040516103669493929190612362565b60405180910390f35b34801561037b57600080fd5b5061039660048036038101906103919190611b74565b61173f565b6040516103a39190612325565b60405180910390f35b3480156103b857600080fd5b506103c1611a85565b6040516103ce9190612347565b60405180910390f35b3480156103e357600080fd5b506103ec611a8b565b6040516103f99190612347565b60405180910390f35b34801561040e57600080fd5b50610417611a91565b60405161042491906123b5565b60405180910390f35b600360205280600052604060002060009150905080600001549080600101549080600201805461045c906123ff565b80601f0160208091040260200160405190810160405280929190818152602001828054610488906123ff565b80156104d55780601f106104aa576101008083540402835291602001916104d5565b820191906000526020600020905b8154815290600101906020018083116104b857829003601f168201915b5050505050908060030160009054906101000a900460ff16908060040180546104fd906123ff565b80601f0160208091040260200160405190810160405280929190818152602001828054610529906123ff565b80156105765780601f1061054b57610100808354040283529160200191610576565b820191906000526020600020905b81548152906001019060200180831161055957829003601f168201915b50505050509080600501805461058b906123ff565b80601f01602080910402602001604051908101604052809291908181526020018280546105b7906123ff565b80156106045780601f106105d957610100808354040283529160200191610604565b820191906000526020600020905b8154815290600101906020018083116105e757829003601f168201915b5050505050908060060160009054906101000a900460ff16908060060160019054906101000a900473ffffffffffffffffffffffffffffffffffffffff16905088565b6005818154811061065757600080fd5b90600052602060002090600302016000915090508060000160009054906101000a900473ffffffffffffffffffffffffffffffffffffffff16908060010180546106a0906123ff565b80601f01602080910402602001604051908101604052809291908181526020018280546106cc906123ff565b80156107195780601f106106ee57610100808354040283529160200191610719565b820191906000526020600020905b8154815290600101906020018083116106fc57829003601f168201915b5050505050908060020160009054906101000a900473ffffffffffffffffffffffffffffffffffffffff16905083565b6007602052816000526040600020818051602081018201805184825260208301602085012081835280955050505050506000915091509054906101000a900460ff1681565b60008054906101000a900473ffffffffffffffffffffffffffffffffffffffff1673ffffffffffffffffffffffffffffffffffffffff163373ffffffffffffffffffffffffffffffffffffffff161461081c576040517f08c379a0000000000000000000000000000000000000000000000000000000008152600401610813906124a2565b60405180910390fd5b60008054906101000a900473ffffffffffffffffffffffffffffffffffffffff1673ffffffffffffffffffffffffffffffffffffffff166108fc479081150290604051600060405180830381858888f19350505050158015610882573d6000803e3d6000fd5b50565b6000600360003373ffffffffffffffffffffffffffffffffffffffff1673ffffffffffffffffffffffffffffffffffffffff168152602001908152602001600020600001540361090a576040517f08c379a000000000000000000000000000000000000000000000000000000000815260040161090190612534565b60405180910390fd5b6000600460008473ffffffffffffffffffffffffffffffffffffffff1673ffffffffffffffffffffffffffffffffffffffff168152602001908152602001600020600001540361098f576040517f08c379a0000000000000000000000000000000000000000000000000000000008152600401610986906125a0565b60405180910390fd5b6008543410156109d4576040517f08c379a00000000000000000000000000000000000000000000000000000000081526004016109cb9061260c565b60405180910390fd5b600760008373ffffffffffffffffffffffffffffffffffffffff1673ffffffffffffffffffffffffffffffffffffffff16815260200190815260200160002081604051610a219190612668565b908152602001604051809103902060009054906101000a900460ff1615610a7d576040517f08c379a0000000000000000000000000000000000000000000000000000000008152600401610a74906126cb565b60405180910390fd5b6001600760008473ffffffffffffffffffffffffffffffffffffffff1673ffffffffffffffffffffffffffffffffffffffff16815260200190815260200160002082604051610acc9190612668565b908152602001604051809103902060006101000a81548160ff021916908315150217905550600560405180606001604052803373ffffffffffffffffffffffffffffffffffffffff1681526020018381526020018473ffffffffffffffffffffffffffffffffffffffff16815250908060018154018082558091505060019003906000526020600020906003020160009091909190915060008201518160000160006101000a81548173ffffffffffffffffffffffffffffffffffffffff021916908373ffffffffffffffffffffffffffffffffffffffff1602179055506020820151816001019081610bbf9190612897565b5060408201518160020160006101000a81548173ffffffffffffffffffffffffffffffffffffffff021916908373ffffffffffffffffffffffffffffffffffffffff1602179055505050600854341115610c68573373ffffffffffffffffffffffffffffffffffffffff166108fc60085434610c3b9190612998565b9081150290604051600060405180830381858888f19350505050158015610c66573d6000803e3d6000fd5b505b5050565b60008054906101000a900473ffffffffffffffffffffffffffffffffffffffff1673ffffffffffffffffffffffffffffffffffffffff163373ffffffffffffffffffffffffffffffffffffffff1614610cfa576040517f08c379a0000000000000000000000000000000000000000000000000000000008152600401610cf1906124a2565b60405180910390fd5b6000600360008573ffffffffffffffffffffffffffffffffffffffff1673ffffffffffffffffffffffffffffffffffffffff16815260200190815260200160002090506000816000015403610d84576040517f08c379a0000000000000000000000000000000000000000000000000000000008152600401610d7b90612a18565b60405180910390fd5b8060060160009054906101000a900460ff1615610dd6576040517f08c379a0000000000000000000000000000000000000000000000000000000008152600401610dcd90612aaa565b60405180910390fd5b828160030160006101000a81548160ff02191690836002811115610dfd57610dfc611c4a565b5b02179055508115610e265760018160060160006101000a81548160ff0219169083151502179055505b50505050565b6000600460003373ffffffffffffffffffffffffffffffffffffffff1673ffffffffffffffffffffffffffffffffffffffff1681526020019081526020016000206000015414610eb1576040517f08c379a0000000000000000000000000000000000000000000000000000000008152600401610ea890612b16565b60405180910390fd5b6040518060800160405280600260008154610ecb90612b36565b91905081905581526020018381526020018281526020013373ffffffffffffffffffffffffffffffffffffffff16815250600460003373ffffffffffffffffffffffffffffffffffffffff1673ffffffffffffffffffffffffffffffffffffffff168152602001908152602001600020600082015181600001556020820151816001019081610f5a9190612897565b506040820151816002019081610f709190612897565b5060608201518160030160006101000a81548173ffffffffffffffffffffffffffffffffffffffff021916908373ffffffffffffffffffffffffffffffffffffffff1602179055509050505050565b60068181548110610fcf57600080fd5b906000526020600020016000915090508054610fea906123ff565b80601f0160208091040260200160405190810160405280929190818152602001828054611016906123ff565b80156110635780601f1061103857610100808354040283529160200191611063565b820191906000526020600020905b81548152906001019060200180831161104657829003601f168201915b505050505081565b6000600360003373ffffffffffffffffffffffffffffffffffffffff1673ffffffffffffffffffffffffffffffffffffffff16815260200190815260200160002060000154146110f0576040517f08c379a00000000000000000000000000000000000000000000000000000000081526004016110e790612bca565b60405180910390fd5b60405180610100016040528060016000815461110b90612b36565b91905081905581526020018581526020018481526020016000600281111561113657611135611c4a565b5b81526020018381526020018281526020016000151581526020013373ffffffffffffffffffffffffffffffffffffffff16815250600360003373ffffffffffffffffffffffffffffffffffffffff1673ffffffffffffffffffffffffffffffffffffffff168152602001908152602001600020600082015181600001556020820151816001015560408201518160020190816111d29190612897565b5060608201518160030160006101000a81548160ff021916908360028111156111fe576111fd611c4a565b5b021790555060808201518160040190816112189190612897565b5060a082015181600501908161122e9190612897565b5060c08201518160060160006101000a81548160ff02191690831515021790555060e08201518160060160016101000a81548173ffffffffffffffffffffffffffffffffffffffff021916908373ffffffffffffffffffffffffffffffffffffffff16021790555090505050505050565b60606005805480602002602001604051908101604052809291908181526020016000905b8282101561143357838290600052602060002090600302016040518060600160405290816000820160009054906101000a900473ffffffffffffffffffffffffffffffffffffffff1673ffffffffffffffffffffffffffffffffffffffff1673ffffffffffffffffffffffffffffffffffffffff16815260200160018201805461134c906123ff565b80601f0160208091040260200160405190810160405280929190818152602001828054611378906123ff565b80156113c55780601f1061139a576101008083540402835291602001916113c5565b820191906000526020600020905b8154815290600101906020018083116113a857829003601f168201915b505050505081526020016002820160009054906101000a900473ffffffffffffffffffffffffffffffffffffffff1673ffffffffffffffffffffffffffffffffffffffff1673ffffffffffffffffffffffffffffffffffffffff1681525050815260200190600101906112c3565b50505050905090565b60025481565b60606005805480602002602001604051908101604052809291908181526020016000905b828210156115d657838290600052602060002090600302016040518060600160405290816000820160009054906101000a900473ffffffffffffffffffffffffffffffffffffffff1673ffffffffffffffffffffffffffffffffffffffff1673ffffffffffffffffffffffffffffffffffffffff1681526020016001820180546114ef906123ff565b80601f016020809104026020016040519081016040528092919081815260200182805461151b906123ff565b80156115685780601f1061153d57610100808354040283529160200191611568565b820191906000526020600020905b81548152906001019060200180831161154b57829003601f168201915b505050505081526020016002820160009054906101000a900473ffffffffffffffffffffffffffffffffffffffff1673ffffffffffffffffffffffffffffffffffffffff1673ffffffffffffffffffffffffffffffffffffffff168152505081526020019060010190611466565b50505050905090565b6004602052806000526040600020600091509050806000015490806001018054611608906123ff565b80601f0160208091040260200160405190810160405280929190818152602001828054611634906123ff565b80156116815780601f1061165657610100808354040283529160200191611681565b820191906000526020600020905b81548152906001019060200180831161166457829003601f168201915b505050505090806002018054611696906123ff565b80601f01602080910402602001604051908101604052809291908181526020018280546116c2906123ff565b801561170f5780601f106116e45761010080835404028352916020019161170f565b820191906000526020600020905b8154815290600101906020018083116116f257829003601f168201915b5050505050908060030160009054906101000a900473ffffffffffffffffffffffffffffffffffffffff16905084565b60606000805b6005805490508110156117ec578373ffffffffffffffffffffffffffffffffffffffff166005828154811061177d5761177c612bea565b5b906000526020600020906003020160020160009054906101000a900473ffffffffffffffffffffffffffffffffffffffff1673ffffffffffffffffffffffffffffffffffffffff16036117d95781806117d590612b36565b9250505b80806117e490612b36565b915050611745565b5060008167ffffffffffffffff81111561180957611808611e1f565b5b60405190808252806020026020018201604052801561184257816020015b61182f611ab5565b8152602001906001900390816118275790505b5090506000805b600580549050811015611a79578573ffffffffffffffffffffffffffffffffffffffff166005828154811061188157611880612bea565b5b906000526020600020906003020160020160009054906101000a900473ffffffffffffffffffffffffffffffffffffffff1673ffffffffffffffffffffffffffffffffffffffff1603611a6657600581815481106118e2576118e1612bea565b5b90600052602060002090600302016040518060600160405290816000820160009054906101000a900473ffffffffffffffffffffffffffffffffffffffff1673ffffffffffffffffffffffffffffffffffffffff1673ffffffffffffffffffffffffffffffffffffffff168152602001600182018054611961906123ff565b80601f016020809104026020016040519081016040528092919081815260200182805461198d906123ff565b80156119da5780601f106119af576101008083540402835291602001916119da565b820191906000526020600020905b8154815290600101906020018083116119bd57829003601f168201915b505050505081526020016002820160009054906101000a900473ffffffffffffffffffffffffffffffffffffffff1673ffffffffffffffffffffffffffffffffffffffff1673ffffffffffffffffffffffffffffffffffffffff1681525050838381518110611a4c57611a4b612bea565b5b60200260200101819052508180611a6290612b36565b9250505b8080611a7190612b36565b915050611849565b50819350505050919050565b60085481565b60015481565b60008054906101000a900473ffffffffffffffffffffffffffffffffffffffff1681565b6040518060600160405280600073ffffffffffffffffffffffffffffffffffffffff16815260200160608152602001600073ffffffffffffffffffffffffffffffffffffffff1681525090565b6000604051905090565b600080fd5b600080fd5b600073ffffffffffffffffffffffffffffffffffffffff82169050919050565b6000611b4182611b16565b9050919050565b611b5181611b36565b8114611b5c57600080fd5b50565b600081359050611b6e81611b48565b92915050565b600060208284031215611b8a57611b89611b0c565b5b6000611b9884828501611b5f565b91505092915050565b6000819050919050565b611bb481611ba1565b82525050565b600081519050919050565b600082825260208201905092915050565b60005b83811015611bf4578082015181840152602081019050611bd9565b60008484015250505050565b6000601f19601f8301169050919050565b6000611c1c82611bba565b611c268185611bc5565b9350611c36818560208601611bd6565b611c3f81611c00565b840191505092915050565b7f4e487b7100000000000000000000000000000000000000000000000000000000600052602160045260246000fd5b60038110611c8a57611c89611c4a565b5b50565b6000819050611c9b82611c79565b919050565b6000611cab82611c8d565b9050919050565b611cbb81611ca0565b82525050565b60008115159050919050565b611cd681611cc1565b82525050565b611ce581611b36565b82525050565b600061010082019050611d01600083018b611bab565b611d0e602083018a611bab565b8181036040830152611d208189611c11565b9050611d2f6060830188611cb2565b8181036080830152611d418187611c11565b905081810360a0830152611d558186611c11565b9050611d6460c0830185611ccd565b611d7160e0830184611cdc565b9998505050505050505050565b611d8781611ba1565b8114611d9257600080fd5b50565b600081359050611da481611d7e565b92915050565b600060208284031215611dc057611dbf611b0c565b5b6000611dce84828501611d95565b91505092915050565b6000606082019050611dec6000830186611cdc565b8181036020830152611dfe8185611c11565b9050611e0d6040830184611cdc565b949350505050565b600080fd5b600080fd5b7f4e487b7100000000000000000000000000000000000000000000000000000000600052604160045260246000fd5b611e5782611c00565b810181811067ffffffffffffffff82111715611e7657611e75611e1f565b5b80604052505050565b6000611e89611b02565b9050611e958282611e4e565b919050565b600067ffffffffffffffff821115611eb557611eb4611e1f565b5b611ebe82611c00565b9050602081019050919050565b82818337600083830152505050565b6000611eed611ee884611e9a565b611e7f565b905082815260208101848484011115611f0957611f08611e1a565b5b611f14848285611ecb565b509392505050565b600082601f830112611f3157611f30611e15565b5b8135611f41848260208601611eda565b91505092915050565b60008060408385031215611f6157611f60611b0c565b5b6000611f6f85828601611b5f565b925050602083013567ffffffffffffffff811115611f9057611f8f611b11565b5b611f9c85828601611f1c565b9150509250929050565b6000602082019050611fbb6000830184611ccd565b92915050565b60038110611fce57600080fd5b50565b600081359050611fe081611fc1565b92915050565b611fef81611cc1565b8114611ffa57600080fd5b50565b60008135905061200c81611fe6565b92915050565b60008060006060848603121561202b5761202a611b0c565b5b600061203986828701611b5f565b935050602061204a86828701611fd1565b925050604061205b86828701611ffd565b9150509250925092565b6000806040838503121561207c5761207b611b0c565b5b600083013567ffffffffffffffff81111561209a57612099611b11565b5b6120a685828601611f1c565b925050602083013567ffffffffffffffff8111156120c7576120c6611b11565b5b6120d385828601611f1c565b9150509250929050565b600060208201905081810360008301526120f78184611c11565b905092915050565b6000806000806080858703121561211957612118611b0c565b5b600061212787828801611d95565b945050602085013567ffffffffffffffff81111561214857612147611b11565b5b61215487828801611f1c565b935050604085013567ffffffffffffffff81111561217557612174611b11565b5b61218187828801611f1c565b925050606085013567ffffffffffffffff8111156121a2576121a1611b11565b5b6121ae87828801611f1c565b91505092959194509250565b600081519050919050565b600082825260208201905092915050565b6000819050602082019050919050565b6121ef81611b36565b82525050565b600082825260208201905092915050565b600061221182611bba565b61221b81856121f5565b935061222b818560208601611bd6565b61223481611c00565b840191505092915050565b600060608301600083015161225760008601826121e6565b506020830151848203602086015261226f8282612206565b915050604083015161228460408601826121e6565b508091505092915050565b600061229b838361223f565b905092915050565b6000602082019050919050565b60006122bb826121ba565b6122c581856121c5565b9350836020820285016122d7856121d6565b8060005b8581101561231357848403895281516122f4858261228f565b94506122ff836122a3565b925060208a019950506001810190506122db565b50829750879550505050505092915050565b6000602082019050818103600083015261233f81846122b0565b905092915050565b600060208201905061235c6000830184611bab565b92915050565b60006080820190506123776000830187611bab565b81810360208301526123898186611c11565b9050818103604083015261239d8185611c11565b90506123ac6060830184611cdc565b95945050505050565b60006020820190506123ca6000830184611cdc565b92915050565b7f4e487b7100000000000000000000000000000000000000000000000000000000600052602260045260246000fd5b6000600282049050600182168061241757607f821691505b60208210810361242a576124296123d0565b5b50919050565b7f4f6e6c792061646d696e2063616e20706572666f726d2074686973206163746960008201527f6f6e000000000000000000000000000000000000000000000000000000000000602082015250565b600061248c602283611bc5565b915061249782612430565b604082019050919050565b600060208201905081810360008301526124bb8161247f565b9050919050565b7f4f6e6c7920726567697374657265642070617469656e74732063616e2070657260008201527f666f726d207468697320616374696f6e00000000000000000000000000000000602082015250565b600061251e603083611bc5565b9150612529826124c2565b604082019050919050565b6000602082019050818103600083015261254d81612511565b9050919050565b7f446f63746f72206e6f7420666f756e6400000000000000000000000000000000600082015250565b600061258a601083611bc5565b915061259582612554565b602082019050919050565b600060208201905081810360008301526125b98161257d565b9050919050565b7f496e636f72726563742066656520616d6f756e74000000000000000000000000600082015250565b60006125f6601483611bc5565b9150612601826125c0565b602082019050919050565b60006020820190508181036000830152612625816125e9565b9050919050565b600081905092915050565b600061264282611bba565b61264c818561262c565b935061265c818560208601611bd6565b80840191505092915050565b60006126748284612637565b915081905092915050565b7f54696d6520736c6f7420616c726561647920626f6f6b65640000000000000000600082015250565b60006126b5601883611bc5565b91506126c08261267f565b602082019050919050565b600060208201905081810360008301526126e4816126a8565b9050919050565b60008190508160005260206000209050919050565b60006020601f8301049050919050565b600082821b905092915050565b60006008830261274d7fffffffffffffffffffffffffffffffffffffffffffffffffffffffffffffffff82612710565b6127578683612710565b95508019841693508086168417925050509392505050565b6000819050919050565b600061279461278f61278a84611ba1565b61276f565b611ba1565b9050919050565b6000819050919050565b6127ae83612779565b6127c26127ba8261279b565b84845461271d565b825550505050565b600090565b6127d76127ca565b6127e28184846127a5565b505050565b5b81811015612806576127fb6000826127cf565b6001810190506127e8565b5050565b601f82111561284b5761281c816126eb565b61282584612700565b81016020851015612834578190505b61284861284085612700565b8301826127e7565b50505b505050565b600082821c905092915050565b600061286e60001984600802612850565b1980831691505092915050565b6000612887838361285d565b9150826002028217905092915050565b6128a082611bba565b67ffffffffffffffff8111156128b9576128b8611e1f565b5b6128c382546123ff565b6128ce82828561280a565b600060209050601f83116001811461290157600084156128ef578287015190505b6128f9858261287b565b865550612961565b601f19841661290f866126eb565b60005b8281101561293757848901518255600182019150602085019450602081019050612912565b868310156129545784890151612950601f89168261285d565b8355505b6001600288020188555050505b505050505050565b7f4e487b7100000000000000000000000000000000000000000000000000000000600052601160045260246000fd5b60006129a382611ba1565b91506129ae83611ba1565b92508282039050818111156129c6576129c5612969565b5b92915050565b7f50617469656e74206e6f7420666f756e64000000000000000000000000000000600082015250565b6000612a02601183611bc5565b9150612a0d826129cc565b602082019050919050565b60006020820190508181036000830152612a31816129f5565b9050919050565b7f43616e6e6f74207570646174652064617461206f66206120646563656173656460008201527f2070617469656e74000000000000000000000000000000000000000000000000602082015250565b6000612a94602883611bc5565b9150612a9f82612a38565b604082019050919050565b60006020820190508181036000830152612ac381612a87565b9050919050565b7f446f63746f7220616c7265616479207265676973746572656400000000000000600082015250565b6000612b00601983611bc5565b9150612b0b82612aca565b602082019050919050565b60006020820190508181036000830152612b2f81612af3565b9050919050565b6000612b4182611ba1565b91507fffffffffffffffffffffffffffffffffffffffffffffffffffffffffffffffff8203612b7357612b72612969565b5b600182019050919050565b7f50617469656e7420616c72656164792072656769737465726564000000000000600082015250565b6000612bb4601a83611bc5565b9150612bbf82612b7e565b602082019050919050565b60006020820190508181036000830152612be381612ba7565b9050919050565b7f4e487b7100000000000000000000000000000000000000000000000000000000600052603260045260246000fdfea2646970667358221220638c7936b7f9c27f1c3b6aabcf31199a16e992cd2fbf5391b8806818ce85791464736f6c63430008100033",
  "immutableReferences": {},
  "source": "// SPDX-License-Identifier: MIT\npragma solidity >=0.7.0 <0.9.0;\n\ncontract Election {\n    enum VaccineStatus { NOT_VACCINATED, ONE_DOSE, TWO_DOSE }\n\n    struct Patient {\n        uint id;\n        uint age;\n        string gender;\n        VaccineStatus vaccine_status;\n        string district;\n        string symptoms_details;\n        bool is_dead;\n        address patientAddress;\n    }\n\n    struct Doctor {\n        uint id;\n        string name;\n        string specialization;\n        address doctorAddress;\n    }\n\n    struct Appointment {\n        address patient;\n        string timeSlot;\n        address doctor;\n    }\n\n    address public admin;\n    uint public patientCounter = 0;\n    uint public doctorCounter = 0;\n\n    mapping(address => Patient) public patients;\n    mapping(address => Doctor) public doctors;\n    Appointment[] public appointments;\n\n    string[] public timeSlots = [\n        \"Slot 1: 4:00 PM - 4:10 PM\",\n        \"Slot 2: 4:11 PM - 4:20 PM\",\n        \"Slot 3: 4:21 PM - 4:30 PM\",\n        \"Slot 4: 4:31 PM - 4:40 PM\"\n    ];\n\n    mapping(address => mapping(string => bool)) public doctorBookings;\n\n    uint public appointmentFee = 0.01 ether;\n\n    modifier onlyAdmin() {\n        require(msg.sender == admin, \"Only admin can perform this action\");\n        _;\n    }\n\n    modifier onlyRegisteredPatient() {\n        require(patients[msg.sender].id != 0, \"Only registered patients can perform this action\");\n        _;\n    }\n\n    modifier onlyRegisteredDoctor() {\n        require(doctors[msg.sender].id != 0, \"Only registered doctors can perform this action\");\n        _;\n    }\n\n    constructor() {\n        admin = msg.sender;\n    }\n\n    function registerPatient(\n        uint _age,\n        string memory _gender,\n        string memory _district,\n        string memory _symptoms_details\n    ) public {\n        require(patients[msg.sender].id == 0, \"Patient already registered\");\n        patients[msg.sender] = Patient({\n            id: ++patientCounter,\n            age: _age,\n            gender: _gender,\n            vaccine_status: VaccineStatus.NOT_VACCINATED,\n            district: _district,\n            symptoms_details: _symptoms_details,\n            is_dead: false,\n            patientAddress: msg.sender\n        });\n    }\n\n    function registerDoctor(\n        string memory _name,\n        string memory _specialization\n    ) public {\n        require(doctors[msg.sender].id == 0, \"Doctor already registered\");\n        doctors[msg.sender] = Doctor({\n            id: ++doctorCounter,\n            name: _name,\n            specialization: _specialization,\n            doctorAddress: msg.sender\n        });\n    }\n\n    function updatePatientData(\n        address _patientAddress,\n        VaccineStatus _vaccine_status,\n        bool _is_dead\n    ) public onlyAdmin {\n        Patient storage patient = patients[_patientAddress];\n        require(patient.id != 0, \"Patient not found\");\n        require(!patient.is_dead, \"Cannot update data of a deceased patient\");\n\n        patient.vaccine_status = _vaccine_status;\n        if (_is_dead) {\n            patient.is_dead = true;\n        }\n    }\n\n    function bookAppointment(address doctor, string memory timeSlot) public payable onlyRegisteredPatient {\n        require(doctors[doctor].id != 0, \"Doctor not found\");\n        require(msg.value >= appointmentFee, \"Incorrect fee amount\");\n        require(!doctorBookings[doctor][timeSlot], \"Time slot already booked\");\n\n        doctorBookings[doctor][timeSlot] = true;\n        appointments.push(Appointment({\n            patient: msg.sender,\n            timeSlot: timeSlot,\n            doctor: doctor\n        }));\n\n        if (msg.value > appointmentFee) {\n            payable(msg.sender).transfer(msg.value - appointmentFee);\n        }\n    }\n\n    function withdrawFees() public onlyAdmin {\n        payable(admin).transfer(address(this).balance);\n    }\n\n    function getAppointments() public view returns (Appointment[] memory) {\n        return appointments;\n    }\n\n    function getDoctorSchedule(address doctor) public view returns (Appointment[] memory) {\n        uint count = 0;\n        for (uint i = 0; i < appointments.length; i++) {\n            if (appointments[i].doctor == doctor) {\n                count++;\n            }\n        }\n\n        Appointment[] memory schedule = new Appointment[](count);\n        uint index = 0;\n        for (uint i = 0; i < appointments.length; i++) {\n            if (appointments[i].doctor == doctor) {\n                schedule[index] = appointments[i];\n                index++;\n            }\n        }\n        return schedule;\n    }\n\n    function seeAllAppointments() public view returns (Appointment[] memory) {\n        return appointments;\n    }\n}\n",
  "sourcePath": "/home/abrar/Documents/DApp_466_ADR_2024/election/contracts/Election.sol",
  "compiler": {
    "name": "solc",
    "version": "0.8.16+commit.07a7930e.Emscripten.clang"
  },
  "schemaVersion": "3.4.16",
  "updatedAt": "2024-12-29T15:01:11.302Z",
  "networkType": "ethereum",
  "devdoc": {
    "kind": "dev",
    "methods": {},
    "version": 1
  },
  "userdoc": {
    "kind": "user",
    "methods": {},
    "version": 1
  }
}